:1000000019C020C01FC01EC01DC01CC01BC01AC00C
:1000100019C018C017C016C015C014C013C012C034
:1000200011C010C00FC00EC00DC00CC00BC00AC064
:1000300009C008C011241FBECFEFCDBFDFE3DEBF74
:1000400002D066C0DDCF86EC8093010480E490E8A6
:1000500024E032E04AE050E080930704EBE7F2E965
:100060003197F1F700C000008093070490930704D4
:10007000EBE7F2E93197F1F700C000009093070435
:10008000EBE7F2E93197F1F700C000002093070495
:10009000EBE7F2E93197F1F700C000002093070485
:1000A000EBE7F2E93197F1F700C000003093070465
:1000B000EBE7F2E93197F1F700C000003093070455
:1000C0004150510949F647E050E08093070490936E
:1000D00007043093070420930704EBE7F2E9319714
:1000E000F1F700C000008093070490930704309359
:1000F000070420930704F7EF64E271E0F1506040D9
:100100007040E1F700C0000041505109F1F6A2CF64
:04011000F894FFCF91
:00000001FF
